{
	"Modifier/FirstCoinModifier.sol": {
		"Firstcoin": {
			"abi": [
				{
					"inputs": [],
					"stateMutability": "nonpayable",
					"type": "constructor"
				},
				{
					"anonymous": false,
					"inputs": [
						{
							"indexed": false,
							"internalType": "address",
							"name": "from",
							"type": "address"
						},
						{
							"indexed": false,
							"internalType": "address",
							"name": "to",
							"type": "address"
						},
						{
							"indexed": false,
							"internalType": "uint256",
							"name": "amount",
							"type": "uint256"
						}
					],
					"name": "sent",
					"type": "event"
				},
				{
					"inputs": [
						{
							"internalType": "address",
							"name": "",
							"type": "address"
						}
					],
					"name": "balances",
					"outputs": [
						{
							"internalType": "uint256",
							"name": "",
							"type": "uint256"
						}
					],
					"stateMutability": "view",
					"type": "function"
				},
				{
					"inputs": [
						{
							"internalType": "address",
							"name": "receiver",
							"type": "address"
						},
						{
							"internalType": "uint256",
							"name": "amount",
							"type": "uint256"
						}
					],
					"name": "mint",
					"outputs": [],
					"stateMutability": "nonpayable",
					"type": "function"
				},
				{
					"inputs": [],
					"name": "minter",
					"outputs": [
						{
							"internalType": "address",
							"name": "",
							"type": "address"
						}
					],
					"stateMutability": "view",
					"type": "function"
				},
				{
					"inputs": [
						{
							"internalType": "address",
							"name": "receiver",
							"type": "address"
						},
						{
							"internalType": "address",
							"name": "minter",
							"type": "address"
						},
						{
							"internalType": "uint256",
							"name": "amount",
							"type": "uint256"
						}
					],
					"name": "send",
					"outputs": [],
					"stateMutability": "nonpayable",
					"type": "function"
				}
			],
			"devdoc": {
				"kind": "dev",
				"methods": {},
				"version": 1
			},
			"evm": {
				"assembly": "    /* \"Modifier/FirstCoinModifier.sol\":33:1008  contract Firstcoin {\r... */\n  mstore(0x40, 0x80)\n    /* \"Modifier/FirstCoinModifier.sol\":555:606  constructor(){\r... */\n  callvalue\n  dup1\n  iszero\n  tag_1\n  jumpi\n  0x00\n  dup1\n  revert\ntag_1:\n  pop\n    /* \"Modifier/FirstCoinModifier.sol\":588:598  msg.sender */\n  caller\n    /* \"Modifier/FirstCoinModifier.sol\":579:585  minter */\n  0x00\n  dup1\n    /* \"Modifier/FirstCoinModifier.sol\":579:598  minter = msg.sender */\n  0x0100\n  exp\n  dup2\n  sload\n  dup2\n  0xffffffffffffffffffffffffffffffffffffffff\n  mul\n  not\n  and\n  swap1\n  dup4\n  0xffffffffffffffffffffffffffffffffffffffff\n  and\n  mul\n  or\n  swap1\n  sstore\n  pop\n    /* \"Modifier/FirstCoinModifier.sol\":33:1008  contract Firstcoin {\r... */\n  dataSize(sub_0)\n  dup1\n  dataOffset(sub_0)\n  0x00\n  codecopy\n  0x00\n  return\nstop\n\nsub_0: assembly {\n        /* \"Modifier/FirstCoinModifier.sol\":33:1008  contract Firstcoin {\r... */\n      mstore(0x40, 0x80)\n      callvalue\n      dup1\n      iszero\n      tag_1\n      jumpi\n      0x00\n      dup1\n      revert\n    tag_1:\n      pop\n      jumpi(tag_2, lt(calldatasize, 0x04))\n      shr(0xe0, calldataload(0x00))\n      dup1\n      0x07546172\n      eq\n      tag_3\n      jumpi\n      dup1\n      0x0779afe6\n      eq\n      tag_4\n      jumpi\n      dup1\n      0x27e235e3\n      eq\n      tag_5\n      jumpi\n      dup1\n      0x40c10f19\n      eq\n      tag_6\n      jumpi\n    tag_2:\n      0x00\n      dup1\n      revert\n        /* \"Modifier/FirstCoinModifier.sol\":59:80  address public minter */\n    tag_3:\n      tag_7\n      tag_8\n      jump\t// in\n    tag_7:\n      mload(0x40)\n      tag_9\n      swap2\n      swap1\n      tag_10\n      jump\t// in\n    tag_9:\n      mload(0x40)\n      dup1\n      swap2\n      sub\n      swap1\n      return\n        /* \"Modifier/FirstCoinModifier.sol\":786:1005  function send(address receiver, address minter,uint amount) public checkBalance(amount){\r... */\n    tag_4:\n      tag_11\n      0x04\n      dup1\n      calldatasize\n      sub\n      dup2\n      add\n      swap1\n      tag_12\n      swap2\n      swap1\n      tag_13\n      jump\t// in\n    tag_12:\n      tag_14\n      jump\t// in\n    tag_11:\n      stop\n        /* \"Modifier/FirstCoinModifier.sol\":87:128  mapping (address => uint) public balances */\n    tag_5:\n      tag_15\n      0x04\n      dup1\n      calldatasize\n      sub\n      dup2\n      add\n      swap1\n      tag_16\n      swap2\n      swap1\n      tag_17\n      jump\t// in\n    tag_16:\n      tag_18\n      jump\t// in\n    tag_15:\n      mload(0x40)\n      tag_19\n      swap2\n      swap1\n      tag_20\n      jump\t// in\n    tag_19:\n      mload(0x40)\n      dup1\n      swap2\n      sub\n      swap1\n      return\n        /* \"Modifier/FirstCoinModifier.sol\":636:761  function mint(address receiver, uint amount)public onlyMint checkMount(amount){\r... */\n    tag_6:\n      tag_21\n      0x04\n      dup1\n      calldatasize\n      sub\n      dup2\n      add\n      swap1\n      tag_22\n      swap2\n      swap1\n      tag_23\n      jump\t// in\n    tag_22:\n      tag_24\n      jump\t// in\n    tag_21:\n      stop\n        /* \"Modifier/FirstCoinModifier.sol\":59:80  address public minter */\n    tag_8:\n      0x00\n      dup1\n      sload\n      swap1\n      0x0100\n      exp\n      swap1\n      div\n      0xffffffffffffffffffffffffffffffffffffffff\n      and\n      dup2\n      jump\t// out\n        /* \"Modifier/FirstCoinModifier.sol\":786:1005  function send(address receiver, address minter,uint amount) public checkBalance(amount){\r... */\n    tag_14:\n        /* \"Modifier/FirstCoinModifier.sol\":866:872  amount */\n      dup1\n        /* \"Modifier/FirstCoinModifier.sol\":437:445  balances */\n      0x01\n        /* \"Modifier/FirstCoinModifier.sol\":437:457  balances[msg.sender] */\n      0x00\n        /* \"Modifier/FirstCoinModifier.sol\":446:456  msg.sender */\n      caller\n        /* \"Modifier/FirstCoinModifier.sol\":437:457  balances[msg.sender] */\n      0xffffffffffffffffffffffffffffffffffffffff\n      and\n      0xffffffffffffffffffffffffffffffffffffffff\n      and\n      dup2\n      mstore\n      0x20\n      add\n      swap1\n      dup2\n      mstore\n      0x20\n      add\n      0x00\n      keccak256\n      sload\n        /* \"Modifier/FirstCoinModifier.sol\":427:433  amount */\n      dup2\n        /* \"Modifier/FirstCoinModifier.sol\":427:457  amount <= balances[msg.sender] */\n      gt\n      iszero\n        /* \"Modifier/FirstCoinModifier.sol\":419:527  require(amount <= balances[msg.sender], \"Tai khoan khong du de thuc hien giao dich,Vui long nap them tien!\") */\n      tag_26\n      jumpi\n      mload(0x40)\n      0x08c379a000000000000000000000000000000000000000000000000000000000\n      dup2\n      mstore\n      0x04\n      add\n      tag_27\n      swap1\n      tag_28\n      jump\t// in\n    tag_27:\n      mload(0x40)\n      dup1\n      swap2\n      sub\n      swap1\n      revert\n    tag_26:\n        /* \"Modifier/FirstCoinModifier.sol\":904:910  amount */\n      dup2\n        /* \"Modifier/FirstCoinModifier.sol\":884:892  balances */\n      0x01\n        /* \"Modifier/FirstCoinModifier.sol\":884:900  balances[minter] */\n      0x00\n        /* \"Modifier/FirstCoinModifier.sol\":893:899  minter */\n      dup6\n        /* \"Modifier/FirstCoinModifier.sol\":884:900  balances[minter] */\n      0xffffffffffffffffffffffffffffffffffffffff\n      and\n      0xffffffffffffffffffffffffffffffffffffffff\n      and\n      dup2\n      mstore\n      0x20\n      add\n      swap1\n      dup2\n      mstore\n      0x20\n      add\n      0x00\n      keccak256\n      0x00\n        /* \"Modifier/FirstCoinModifier.sol\":884:910  balances[minter] -= amount */\n      dup3\n      dup3\n      sload\n      tag_30\n      swap2\n      swap1\n      tag_31\n      jump\t// in\n    tag_30:\n      swap3\n      pop\n      pop\n      dup2\n      swap1\n      sstore\n      pop\n        /* \"Modifier/FirstCoinModifier.sol\":943:949  amount */\n      dup2\n        /* \"Modifier/FirstCoinModifier.sol\":921:929  balances */\n      0x01\n        /* \"Modifier/FirstCoinModifier.sol\":921:939  balances[receiver] */\n      0x00\n        /* \"Modifier/FirstCoinModifier.sol\":930:938  receiver */\n      dup7\n        /* \"Modifier/FirstCoinModifier.sol\":921:939  balances[receiver] */\n      0xffffffffffffffffffffffffffffffffffffffff\n      and\n      0xffffffffffffffffffffffffffffffffffffffff\n      and\n      dup2\n      mstore\n      0x20\n      add\n      swap1\n      dup2\n      mstore\n      0x20\n      add\n      0x00\n      keccak256\n      0x00\n        /* \"Modifier/FirstCoinModifier.sol\":921:949  balances[receiver] += amount */\n      dup3\n      dup3\n      sload\n      tag_32\n      swap2\n      swap1\n      tag_33\n      jump\t// in\n    tag_32:\n      swap3\n      pop\n      pop\n      dup2\n      swap1\n      sstore\n      pop\n        /* \"Modifier/FirstCoinModifier.sol\":965:997  sent(minter , receiver , amount) */\n      0x570e6727d8aecbd70b2b62942bafdd52df16512778cd1454a51e2e1648719386\n        /* \"Modifier/FirstCoinModifier.sol\":970:976  minter */\n      dup4\n        /* \"Modifier/FirstCoinModifier.sol\":979:987  receiver */\n      dup6\n        /* \"Modifier/FirstCoinModifier.sol\":990:996  amount */\n      dup5\n        /* \"Modifier/FirstCoinModifier.sol\":965:997  sent(minter , receiver , amount) */\n      mload(0x40)\n      tag_34\n      swap4\n      swap3\n      swap2\n      swap1\n      tag_35\n      jump\t// in\n    tag_34:\n      mload(0x40)\n      dup1\n      swap2\n      sub\n      swap1\n      log1\n        /* \"Modifier/FirstCoinModifier.sol\":786:1005  function send(address receiver, address minter,uint amount) public checkBalance(amount){\r... */\n      pop\n      pop\n      pop\n      pop\n      jump\t// out\n        /* \"Modifier/FirstCoinModifier.sol\":87:128  mapping (address => uint) public balances */\n    tag_18:\n      mstore(0x20, 0x01)\n      dup1\n      0x00\n      mstore\n      keccak256(0x00, 0x40)\n      0x00\n      swap2\n      pop\n      swap1\n      pop\n      sload\n      dup2\n      jump\t// out\n        /* \"Modifier/FirstCoinModifier.sol\":636:761  function mint(address receiver, uint amount)public onlyMint checkMount(amount){\r... */\n    tag_24:\n        /* \"Modifier/FirstCoinModifier.sol\":246:252  minter */\n      0x00\n      dup1\n      sload\n      swap1\n      0x0100\n      exp\n      swap1\n      div\n      0xffffffffffffffffffffffffffffffffffffffff\n      and\n        /* \"Modifier/FirstCoinModifier.sol\":232:252  msg.sender == minter */\n      0xffffffffffffffffffffffffffffffffffffffff\n      and\n        /* \"Modifier/FirstCoinModifier.sol\":232:242  msg.sender */\n      caller\n        /* \"Modifier/FirstCoinModifier.sol\":232:252  msg.sender == minter */\n      0xffffffffffffffffffffffffffffffffffffffff\n      and\n      eq\n        /* \"Modifier/FirstCoinModifier.sol\":224:253  require(msg.sender == minter) */\n      tag_37\n      jumpi\n      0x00\n      dup1\n      revert\n    tag_37:\n        /* \"Modifier/FirstCoinModifier.sol\":707:713  amount */\n      dup1\n        /* \"Modifier/FirstCoinModifier.sol\":341:345  1e60 */\n      0x9f4f2726179a224501d762422c946590d91000000000000000\n        /* \"Modifier/FirstCoinModifier.sol\":332:338  amount */\n      dup2\n        /* \"Modifier/FirstCoinModifier.sol\":332:345  amount < 1e60 */\n      lt\n        /* \"Modifier/FirstCoinModifier.sol\":324:346  require(amount < 1e60) */\n      tag_39\n      jumpi\n      0x00\n      dup1\n      revert\n    tag_39:\n        /* \"Modifier/FirstCoinModifier.sol\":747:753  amount */\n      dup2\n        /* \"Modifier/FirstCoinModifier.sol\":725:733  balances */\n      0x01\n        /* \"Modifier/FirstCoinModifier.sol\":725:743  balances[receiver] */\n      0x00\n        /* \"Modifier/FirstCoinModifier.sol\":734:742  receiver */\n      dup6\n        /* \"Modifier/FirstCoinModifier.sol\":725:743  balances[receiver] */\n      0xffffffffffffffffffffffffffffffffffffffff\n      and\n      0xffffffffffffffffffffffffffffffffffffffff\n      and\n      dup2\n      mstore\n      0x20\n      add\n      swap1\n      dup2\n      mstore\n      0x20\n      add\n      0x00\n      keccak256\n      0x00\n        /* \"Modifier/FirstCoinModifier.sol\":725:753  balances[receiver] += amount */\n      dup3\n      dup3\n      sload\n      tag_41\n      swap2\n      swap1\n      tag_33\n      jump\t// in\n    tag_41:\n      swap3\n      pop\n      pop\n      dup2\n      swap1\n      sstore\n      pop\n        /* \"Modifier/FirstCoinModifier.sol\":264:265  _ */\n      pop\n        /* \"Modifier/FirstCoinModifier.sol\":636:761  function mint(address receiver, uint amount)public onlyMint checkMount(amount){\r... */\n      pop\n      pop\n      jump\t// out\n        /* \"#utility.yul\":7:146   */\n    tag_43:\n        /* \"#utility.yul\":53:58   */\n      0x00\n        /* \"#utility.yul\":91:97   */\n      dup2\n        /* \"#utility.yul\":78:98   */\n      calldataload\n        /* \"#utility.yul\":69:98   */\n      swap1\n      pop\n        /* \"#utility.yul\":107:140   */\n      tag_45\n        /* \"#utility.yul\":134:139   */\n      dup2\n        /* \"#utility.yul\":107:140   */\n      tag_46\n      jump\t// in\n    tag_45:\n        /* \"#utility.yul\":7:146   */\n      swap3\n      swap2\n      pop\n      pop\n      jump\t// out\n        /* \"#utility.yul\":152:291   */\n    tag_47:\n        /* \"#utility.yul\":198:203   */\n      0x00\n        /* \"#utility.yul\":236:242   */\n      dup2\n        /* \"#utility.yul\":223:243   */\n      calldataload\n        /* \"#utility.yul\":214:243   */\n      swap1\n      pop\n        /* \"#utility.yul\":252:285   */\n      tag_49\n        /* \"#utility.yul\":279:284   */\n      dup2\n        /* \"#utility.yul\":252:285   */\n      tag_50\n      jump\t// in\n    tag_49:\n        /* \"#utility.yul\":152:291   */\n      swap3\n      swap2\n      pop\n      pop\n      jump\t// out\n        /* \"#utility.yul\":297:626   */\n    tag_17:\n        /* \"#utility.yul\":356:362   */\n      0x00\n        /* \"#utility.yul\":405:407   */\n      0x20\n        /* \"#utility.yul\":393:402   */\n      dup3\n        /* \"#utility.yul\":384:391   */\n      dup5\n        /* \"#utility.yul\":380:403   */\n      sub\n        /* \"#utility.yul\":376:408   */\n      slt\n        /* \"#utility.yul\":373:492   */\n      iszero\n      tag_52\n      jumpi\n        /* \"#utility.yul\":411:490   */\n      tag_53\n      tag_54\n      jump\t// in\n    tag_53:\n        /* \"#utility.yul\":373:492   */\n    tag_52:\n        /* \"#utility.yul\":531:532   */\n      0x00\n        /* \"#utility.yul\":556:609   */\n      tag_55\n        /* \"#utility.yul\":601:608   */\n      dup5\n        /* \"#utility.yul\":592:598   */\n      dup3\n        /* \"#utility.yul\":581:590   */\n      dup6\n        /* \"#utility.yul\":577:599   */\n      add\n        /* \"#utility.yul\":556:609   */\n      tag_43\n      jump\t// in\n    tag_55:\n        /* \"#utility.yul\":546:609   */\n      swap2\n      pop\n        /* \"#utility.yul\":502:619   */\n      pop\n        /* \"#utility.yul\":297:626   */\n      swap3\n      swap2\n      pop\n      pop\n      jump\t// out\n        /* \"#utility.yul\":632:1251   */\n    tag_13:\n        /* \"#utility.yul\":709:715   */\n      0x00\n        /* \"#utility.yul\":717:723   */\n      dup1\n        /* \"#utility.yul\":725:731   */\n      0x00\n        /* \"#utility.yul\":774:776   */\n      0x60\n        /* \"#utility.yul\":762:771   */\n      dup5\n        /* \"#utility.yul\":753:760   */\n      dup7\n        /* \"#utility.yul\":749:772   */\n      sub\n        /* \"#utility.yul\":745:777   */\n      slt\n        /* \"#utility.yul\":742:861   */\n      iszero\n      tag_57\n      jumpi\n        /* \"#utility.yul\":780:859   */\n      tag_58\n      tag_54\n      jump\t// in\n    tag_58:\n        /* \"#utility.yul\":742:861   */\n    tag_57:\n        /* \"#utility.yul\":900:901   */\n      0x00\n        /* \"#utility.yul\":925:978   */\n      tag_59\n        /* \"#utility.yul\":970:977   */\n      dup7\n        /* \"#utility.yul\":961:967   */\n      dup3\n        /* \"#utility.yul\":950:959   */\n      dup8\n        /* \"#utility.yul\":946:968   */\n      add\n        /* \"#utility.yul\":925:978   */\n      tag_43\n      jump\t// in\n    tag_59:\n        /* \"#utility.yul\":915:978   */\n      swap4\n      pop\n        /* \"#utility.yul\":871:988   */\n      pop\n        /* \"#utility.yul\":1027:1029   */\n      0x20\n        /* \"#utility.yul\":1053:1106   */\n      tag_60\n        /* \"#utility.yul\":1098:1105   */\n      dup7\n        /* \"#utility.yul\":1089:1095   */\n      dup3\n        /* \"#utility.yul\":1078:1087   */\n      dup8\n        /* \"#utility.yul\":1074:1096   */\n      add\n        /* \"#utility.yul\":1053:1106   */\n      tag_43\n      jump\t// in\n    tag_60:\n        /* \"#utility.yul\":1043:1106   */\n      swap3\n      pop\n        /* \"#utility.yul\":998:1116   */\n      pop\n        /* \"#utility.yul\":1155:1157   */\n      0x40\n        /* \"#utility.yul\":1181:1234   */\n      tag_61\n        /* \"#utility.yul\":1226:1233   */\n      dup7\n        /* \"#utility.yul\":1217:1223   */\n      dup3\n        /* \"#utility.yul\":1206:1215   */\n      dup8\n        /* \"#utility.yul\":1202:1224   */\n      add\n        /* \"#utility.yul\":1181:1234   */\n      tag_47\n      jump\t// in\n    tag_61:\n        /* \"#utility.yul\":1171:1234   */\n      swap2\n      pop\n        /* \"#utility.yul\":1126:1244   */\n      pop\n        /* \"#utility.yul\":632:1251   */\n      swap3\n      pop\n      swap3\n      pop\n      swap3\n      jump\t// out\n        /* \"#utility.yul\":1257:1731   */\n    tag_23:\n        /* \"#utility.yul\":1325:1331   */\n      0x00\n        /* \"#utility.yul\":1333:1339   */\n      dup1\n        /* \"#utility.yul\":1382:1384   */\n      0x40\n        /* \"#utility.yul\":1370:1379   */\n      dup4\n        /* \"#utility.yul\":1361:1368   */\n      dup6\n        /* \"#utility.yul\":1357:1380   */\n      sub\n        /* \"#utility.yul\":1353:1385   */\n      slt\n        /* \"#utility.yul\":1350:1469   */\n      iszero\n      tag_63\n      jumpi\n        /* \"#utility.yul\":1388:1467   */\n      tag_64\n      tag_54\n      jump\t// in\n    tag_64:\n        /* \"#utility.yul\":1350:1469   */\n    tag_63:\n        /* \"#utility.yul\":1508:1509   */\n      0x00\n        /* \"#utility.yul\":1533:1586   */\n      tag_65\n        /* \"#utility.yul\":1578:1585   */\n      dup6\n        /* \"#utility.yul\":1569:1575   */\n      dup3\n        /* \"#utility.yul\":1558:1567   */\n      dup7\n        /* \"#utility.yul\":1554:1576   */\n      add\n        /* \"#utility.yul\":1533:1586   */\n      tag_43\n      jump\t// in\n    tag_65:\n        /* \"#utility.yul\":1523:1586   */\n      swap3\n      pop\n        /* \"#utility.yul\":1479:1596   */\n      pop\n        /* \"#utility.yul\":1635:1637   */\n      0x20\n        /* \"#utility.yul\":1661:1714   */\n      tag_66\n        /* \"#utility.yul\":1706:1713   */\n      dup6\n        /* \"#utility.yul\":1697:1703   */\n      dup3\n        /* \"#utility.yul\":1686:1695   */\n      dup7\n        /* \"#utility.yul\":1682:1704   */\n      add\n        /* \"#utility.yul\":1661:1714   */\n      tag_47\n      jump\t// in\n    tag_66:\n        /* \"#utility.yul\":1651:1714   */\n      swap2\n      pop\n        /* \"#utility.yul\":1606:1724   */\n      pop\n        /* \"#utility.yul\":1257:1731   */\n      swap3\n      pop\n      swap3\n      swap1\n      pop\n      jump\t// out\n        /* \"#utility.yul\":1737:1855   */\n    tag_67:\n        /* \"#utility.yul\":1824:1848   */\n      tag_69\n        /* \"#utility.yul\":1842:1847   */\n      dup2\n        /* \"#utility.yul\":1824:1848   */\n      tag_70\n      jump\t// in\n    tag_69:\n        /* \"#utility.yul\":1819:1822   */\n      dup3\n        /* \"#utility.yul\":1812:1849   */\n      mstore\n        /* \"#utility.yul\":1737:1855   */\n      pop\n      pop\n      jump\t// out\n        /* \"#utility.yul\":1861:2227   */\n    tag_71:\n        /* \"#utility.yul\":2003:2006   */\n      0x00\n        /* \"#utility.yul\":2024:2091   */\n      tag_73\n        /* \"#utility.yul\":2088:2090   */\n      0x41\n        /* \"#utility.yul\":2083:2086   */\n      dup4\n        /* \"#utility.yul\":2024:2091   */\n      tag_74\n      jump\t// in\n    tag_73:\n        /* \"#utility.yul\":2017:2091   */\n      swap2\n      pop\n        /* \"#utility.yul\":2100:2193   */\n      tag_75\n        /* \"#utility.yul\":2189:2192   */\n      dup3\n        /* \"#utility.yul\":2100:2193   */\n      tag_76\n      jump\t// in\n    tag_75:\n        /* \"#utility.yul\":2218:2220   */\n      0x60\n        /* \"#utility.yul\":2213:2216   */\n      dup3\n        /* \"#utility.yul\":2209:2221   */\n      add\n        /* \"#utility.yul\":2202:2221   */\n      swap1\n      pop\n        /* \"#utility.yul\":1861:2227   */\n      swap2\n      swap1\n      pop\n      jump\t// out\n        /* \"#utility.yul\":2233:2351   */\n    tag_77:\n        /* \"#utility.yul\":2320:2344   */\n      tag_79\n        /* \"#utility.yul\":2338:2343   */\n      dup2\n        /* \"#utility.yul\":2320:2344   */\n      tag_80\n      jump\t// in\n    tag_79:\n        /* \"#utility.yul\":2315:2318   */\n      dup3\n        /* \"#utility.yul\":2308:2345   */\n      mstore\n        /* \"#utility.yul\":2233:2351   */\n      pop\n      pop\n      jump\t// out\n        /* \"#utility.yul\":2357:2579   */\n    tag_10:\n        /* \"#utility.yul\":2450:2454   */\n      0x00\n        /* \"#utility.yul\":2488:2490   */\n      0x20\n        /* \"#utility.yul\":2477:2486   */\n      dup3\n        /* \"#utility.yul\":2473:2491   */\n      add\n        /* \"#utility.yul\":2465:2491   */\n      swap1\n      pop\n        /* \"#utility.yul\":2501:2572   */\n      tag_82\n        /* \"#utility.yul\":2569:2570   */\n      0x00\n        /* \"#utility.yul\":2558:2567   */\n      dup4\n        /* \"#utility.yul\":2554:2571   */\n      add\n        /* \"#utility.yul\":2545:2551   */\n      dup5\n        /* \"#utility.yul\":2501:2572   */\n      tag_67\n      jump\t// in\n    tag_82:\n        /* \"#utility.yul\":2357:2579   */\n      swap3\n      swap2\n      pop\n      pop\n      jump\t// out\n        /* \"#utility.yul\":2585:3027   */\n    tag_35:\n        /* \"#utility.yul\":2734:2738   */\n      0x00\n        /* \"#utility.yul\":2772:2774   */\n      0x60\n        /* \"#utility.yul\":2761:2770   */\n      dup3\n        /* \"#utility.yul\":2757:2775   */\n      add\n        /* \"#utility.yul\":2749:2775   */\n      swap1\n      pop\n        /* \"#utility.yul\":2785:2856   */\n      tag_84\n        /* \"#utility.yul\":2853:2854   */\n      0x00\n        /* \"#utility.yul\":2842:2851   */\n      dup4\n        /* \"#utility.yul\":2838:2855   */\n      add\n        /* \"#utility.yul\":2829:2835   */\n      dup7\n        /* \"#utility.yul\":2785:2856   */\n      tag_67\n      jump\t// in\n    tag_84:\n        /* \"#utility.yul\":2866:2938   */\n      tag_85\n        /* \"#utility.yul\":2934:2936   */\n      0x20\n        /* \"#utility.yul\":2923:2932   */\n      dup4\n        /* \"#utility.yul\":2919:2937   */\n      add\n        /* \"#utility.yul\":2910:2916   */\n      dup6\n        /* \"#utility.yul\":2866:2938   */\n      tag_67\n      jump\t// in\n    tag_85:\n        /* \"#utility.yul\":2948:3020   */\n      tag_86\n        /* \"#utility.yul\":3016:3018   */\n      0x40\n        /* \"#utility.yul\":3005:3014   */\n      dup4\n        /* \"#utility.yul\":3001:3019   */\n      add\n        /* \"#utility.yul\":2992:2998   */\n      dup5\n        /* \"#utility.yul\":2948:3020   */\n      tag_77\n      jump\t// in\n    tag_86:\n        /* \"#utility.yul\":2585:3027   */\n      swap5\n      swap4\n      pop\n      pop\n      pop\n      pop\n      jump\t// out\n        /* \"#utility.yul\":3033:3452   */\n    tag_28:\n        /* \"#utility.yul\":3199:3203   */\n      0x00\n        /* \"#utility.yul\":3237:3239   */\n      0x20\n        /* \"#utility.yul\":3226:3235   */\n      dup3\n        /* \"#utility.yul\":3222:3240   */\n      add\n        /* \"#utility.yul\":3214:3240   */\n      swap1\n      pop\n        /* \"#utility.yul\":3286:3295   */\n      dup2\n        /* \"#utility.yul\":3280:3284   */\n      dup2\n        /* \"#utility.yul\":3276:3296   */\n      sub\n        /* \"#utility.yul\":3272:3273   */\n      0x00\n        /* \"#utility.yul\":3261:3270   */\n      dup4\n        /* \"#utility.yul\":3257:3274   */\n      add\n        /* \"#utility.yul\":3250:3297   */\n      mstore\n        /* \"#utility.yul\":3314:3445   */\n      tag_88\n        /* \"#utility.yul\":3440:3444   */\n      dup2\n        /* \"#utility.yul\":3314:3445   */\n      tag_71\n      jump\t// in\n    tag_88:\n        /* \"#utility.yul\":3306:3445   */\n      swap1\n      pop\n        /* \"#utility.yul\":3033:3452   */\n      swap2\n      swap1\n      pop\n      jump\t// out\n        /* \"#utility.yul\":3458:3680   */\n    tag_20:\n        /* \"#utility.yul\":3551:3555   */\n      0x00\n        /* \"#utility.yul\":3589:3591   */\n      0x20\n        /* \"#utility.yul\":3578:3587   */\n      dup3\n        /* \"#utility.yul\":3574:3592   */\n      add\n        /* \"#utility.yul\":3566:3592   */\n      swap1\n      pop\n        /* \"#utility.yul\":3602:3673   */\n      tag_90\n        /* \"#utility.yul\":3670:3671   */\n      0x00\n        /* \"#utility.yul\":3659:3668   */\n      dup4\n        /* \"#utility.yul\":3655:3672   */\n      add\n        /* \"#utility.yul\":3646:3652   */\n      dup5\n        /* \"#utility.yul\":3602:3673   */\n      tag_77\n      jump\t// in\n    tag_90:\n        /* \"#utility.yul\":3458:3680   */\n      swap3\n      swap2\n      pop\n      pop\n      jump\t// out\n        /* \"#utility.yul\":3767:3936   */\n    tag_74:\n        /* \"#utility.yul\":3851:3862   */\n      0x00\n        /* \"#utility.yul\":3885:3891   */\n      dup3\n        /* \"#utility.yul\":3880:3883   */\n      dup3\n        /* \"#utility.yul\":3873:3892   */\n      mstore\n        /* \"#utility.yul\":3925:3929   */\n      0x20\n        /* \"#utility.yul\":3920:3923   */\n      dup3\n        /* \"#utility.yul\":3916:3930   */\n      add\n        /* \"#utility.yul\":3901:3930   */\n      swap1\n      pop\n        /* \"#utility.yul\":3767:3936   */\n      swap3\n      swap2\n      pop\n      pop\n      jump\t// out\n        /* \"#utility.yul\":3942:4247   */\n    tag_33:\n        /* \"#utility.yul\":3982:3985   */\n      0x00\n        /* \"#utility.yul\":4001:4021   */\n      tag_95\n        /* \"#utility.yul\":4019:4020   */\n      dup3\n        /* \"#utility.yul\":4001:4021   */\n      tag_80\n      jump\t// in\n    tag_95:\n        /* \"#utility.yul\":3996:4021   */\n      swap2\n      pop\n        /* \"#utility.yul\":4035:4055   */\n      tag_96\n        /* \"#utility.yul\":4053:4054   */\n      dup4\n        /* \"#utility.yul\":4035:4055   */\n      tag_80\n      jump\t// in\n    tag_96:\n        /* \"#utility.yul\":4030:4055   */\n      swap3\n      pop\n        /* \"#utility.yul\":4189:4190   */\n      dup3\n        /* \"#utility.yul\":4121:4187   */\n      0xffffffffffffffffffffffffffffffffffffffffffffffffffffffffffffffff\n        /* \"#utility.yul\":4117:4191   */\n      sub\n        /* \"#utility.yul\":4114:4115   */\n      dup3\n        /* \"#utility.yul\":4111:4192   */\n      gt\n        /* \"#utility.yul\":4108:4215   */\n      iszero\n      tag_97\n      jumpi\n        /* \"#utility.yul\":4195:4213   */\n      tag_98\n      tag_99\n      jump\t// in\n    tag_98:\n        /* \"#utility.yul\":4108:4215   */\n    tag_97:\n        /* \"#utility.yul\":4239:4240   */\n      dup3\n        /* \"#utility.yul\":4236:4237   */\n      dup3\n        /* \"#utility.yul\":4232:4241   */\n      add\n        /* \"#utility.yul\":4225:4241   */\n      swap1\n      pop\n        /* \"#utility.yul\":3942:4247   */\n      swap3\n      swap2\n      pop\n      pop\n      jump\t// out\n        /* \"#utility.yul\":4253:4444   */\n    tag_31:\n        /* \"#utility.yul\":4293:4297   */\n      0x00\n        /* \"#utility.yul\":4313:4333   */\n      tag_101\n        /* \"#utility.yul\":4331:4332   */\n      dup3\n        /* \"#utility.yul\":4313:4333   */\n      tag_80\n      jump\t// in\n    tag_101:\n        /* \"#utility.yul\":4308:4333   */\n      swap2\n      pop\n        /* \"#utility.yul\":4347:4367   */\n      tag_102\n        /* \"#utility.yul\":4365:4366   */\n      dup4\n        /* \"#utility.yul\":4347:4367   */\n      tag_80\n      jump\t// in\n    tag_102:\n        /* \"#utility.yul\":4342:4367   */\n      swap3\n      pop\n        /* \"#utility.yul\":4386:4387   */\n      dup3\n        /* \"#utility.yul\":4383:4384   */\n      dup3\n        /* \"#utility.yul\":4380:4388   */\n      lt\n        /* \"#utility.yul\":4377:4411   */\n      iszero\n      tag_103\n      jumpi\n        /* \"#utility.yul\":4391:4409   */\n      tag_104\n      tag_99\n      jump\t// in\n    tag_104:\n        /* \"#utility.yul\":4377:4411   */\n    tag_103:\n        /* \"#utility.yul\":4436:4437   */\n      dup3\n        /* \"#utility.yul\":4433:4434   */\n      dup3\n        /* \"#utility.yul\":4429:4438   */\n      sub\n        /* \"#utility.yul\":4421:4438   */\n      swap1\n      pop\n        /* \"#utility.yul\":4253:4444   */\n      swap3\n      swap2\n      pop\n      pop\n      jump\t// out\n        /* \"#utility.yul\":4450:4546   */\n    tag_70:\n        /* \"#utility.yul\":4487:4494   */\n      0x00\n        /* \"#utility.yul\":4516:4540   */\n      tag_106\n        /* \"#utility.yul\":4534:4539   */\n      dup3\n        /* \"#utility.yul\":4516:4540   */\n      tag_107\n      jump\t// in\n    tag_106:\n        /* \"#utility.yul\":4505:4540   */\n      swap1\n      pop\n        /* \"#utility.yul\":4450:4546   */\n      swap2\n      swap1\n      pop\n      jump\t// out\n        /* \"#utility.yul\":4552:4678   */\n    tag_107:\n        /* \"#utility.yul\":4589:4596   */\n      0x00\n        /* \"#utility.yul\":4629:4671   */\n      0xffffffffffffffffffffffffffffffffffffffff\n        /* \"#utility.yul\":4622:4627   */\n      dup3\n        /* \"#utility.yul\":4618:4672   */\n      and\n        /* \"#utility.yul\":4607:4672   */\n      swap1\n      pop\n        /* \"#utility.yul\":4552:4678   */\n      swap2\n      swap1\n      pop\n      jump\t// out\n        /* \"#utility.yul\":4684:4761   */\n    tag_80:\n        /* \"#utility.yul\":4721:4728   */\n      0x00\n        /* \"#utility.yul\":4750:4755   */\n      dup2\n        /* \"#utility.yul\":4739:4755   */\n      swap1\n      pop\n        /* \"#utility.yul\":4684:4761   */\n      swap2\n      swap1\n      pop\n      jump\t// out\n        /* \"#utility.yul\":4767:4947   */\n    tag_99:\n        /* \"#utility.yul\":4815:4892   */\n      0x4e487b7100000000000000000000000000000000000000000000000000000000\n        /* \"#utility.yul\":4812:4813   */\n      0x00\n        /* \"#utility.yul\":4805:4893   */\n      mstore\n        /* \"#utility.yul\":4912:4916   */\n      0x11\n        /* \"#utility.yul\":4909:4910   */\n      0x04\n        /* \"#utility.yul\":4902:4917   */\n      mstore\n        /* \"#utility.yul\":4936:4940   */\n      0x24\n        /* \"#utility.yul\":4933:4934   */\n      0x00\n        /* \"#utility.yul\":4926:4941   */\n      revert\n        /* \"#utility.yul\":5076:5193   */\n    tag_54:\n        /* \"#utility.yul\":5185:5186   */\n      0x00\n        /* \"#utility.yul\":5182:5183   */\n      dup1\n        /* \"#utility.yul\":5175:5187   */\n      revert\n        /* \"#utility.yul\":5199:5488   */\n    tag_76:\n        /* \"#utility.yul\":5339:5373   */\n      0x546169206b686f616e206b686f6e672064752064652074687563206869656e20\n        /* \"#utility.yul\":5335:5336   */\n      0x00\n        /* \"#utility.yul\":5327:5333   */\n      dup3\n        /* \"#utility.yul\":5323:5337   */\n      add\n        /* \"#utility.yul\":5316:5374   */\n      mstore\n        /* \"#utility.yul\":5408:5442   */\n      0x6769616f20646963682c567569206c6f6e67206e6170207468656d207469656e\n        /* \"#utility.yul\":5403:5405   */\n      0x20\n        /* \"#utility.yul\":5395:5401   */\n      dup3\n        /* \"#utility.yul\":5391:5406   */\n      add\n        /* \"#utility.yul\":5384:5443   */\n      mstore\n        /* \"#utility.yul\":5477:5480   */\n      0x2100000000000000000000000000000000000000000000000000000000000000\n        /* \"#utility.yul\":5472:5474   */\n      0x40\n        /* \"#utility.yul\":5464:5470   */\n      dup3\n        /* \"#utility.yul\":5460:5475   */\n      add\n        /* \"#utility.yul\":5453:5481   */\n      mstore\n        /* \"#utility.yul\":5199:5488   */\n      pop\n      jump\t// out\n        /* \"#utility.yul\":5494:5616   */\n    tag_46:\n        /* \"#utility.yul\":5567:5591   */\n      tag_116\n        /* \"#utility.yul\":5585:5590   */\n      dup2\n        /* \"#utility.yul\":5567:5591   */\n      tag_70\n      jump\t// in\n    tag_116:\n        /* \"#utility.yul\":5560:5565   */\n      dup2\n        /* \"#utility.yul\":5557:5592   */\n      eq\n        /* \"#utility.yul\":5547:5610   */\n      tag_117\n      jumpi\n        /* \"#utility.yul\":5606:5607   */\n      0x00\n        /* \"#utility.yul\":5603:5604   */\n      dup1\n        /* \"#utility.yul\":5596:5608   */\n      revert\n        /* \"#utility.yul\":5547:5610   */\n    tag_117:\n        /* \"#utility.yul\":5494:5616   */\n      pop\n      jump\t// out\n        /* \"#utility.yul\":5622:5744   */\n    tag_50:\n        /* \"#utility.yul\":5695:5719   */\n      tag_119\n        /* \"#utility.yul\":5713:5718   */\n      dup2\n        /* \"#utility.yul\":5695:5719   */\n      tag_80\n      jump\t// in\n    tag_119:\n        /* \"#utility.yul\":5688:5693   */\n      dup2\n        /* \"#utility.yul\":5685:5720   */\n      eq\n        /* \"#utility.yul\":5675:5738   */\n      tag_120\n      jumpi\n        /* \"#utility.yul\":5734:5735   */\n      0x00\n        /* \"#utility.yul\":5731:5732   */\n      dup1\n        /* \"#utility.yul\":5724:5736   */\n      revert\n        /* \"#utility.yul\":5675:5738   */\n    tag_120:\n        /* \"#utility.yul\":5622:5744   */\n      pop\n      jump\t// out\n\n    auxdata: 0xa26469706673582212206051cc988b038e9c27d93e488f5d7c1731403018bb36e5f530e305e4b0d970e764736f6c63430008070033\n}\n",
				"bytecode": {
					"linkReferences": {},
					"object": "608060405234801561001057600080fd5b50336000806101000a81548173ffffffffffffffffffffffffffffffffffffffff021916908373ffffffffffffffffffffffffffffffffffffffff1602179055506106f8806100606000396000f3fe608060405234801561001057600080fd5b506004361061004c5760003560e01c806307546172146100515780630779afe61461006f57806327e235e31461008b57806340c10f19146100bb575b600080fd5b6100596100d7565b6040516100669190610487565b60405180910390f35b610089600480360381019061008491906103b3565b6100fb565b005b6100a560048036038101906100a09190610386565b61026b565b6040516100b291906104f9565b60405180910390f35b6100d560048036038101906100d09190610406565b610283565b005b60008054906101000a900473ffffffffffffffffffffffffffffffffffffffff1681565b80600160003373ffffffffffffffffffffffffffffffffffffffff1673ffffffffffffffffffffffffffffffffffffffff1681526020019081526020016000205481111561017e576040517f08c379a0000000000000000000000000000000000000000000000000000000008152600401610175906104d9565b60405180910390fd5b81600160008573ffffffffffffffffffffffffffffffffffffffff1673ffffffffffffffffffffffffffffffffffffffff16815260200190815260200160002060008282546101cd919061057b565b9250508190555081600160008673ffffffffffffffffffffffffffffffffffffffff1673ffffffffffffffffffffffffffffffffffffffff16815260200190815260200160002060008282546102239190610525565b925050819055507f570e6727d8aecbd70b2b62942bafdd52df16512778cd1454a51e2e164871938683858460405161025d939291906104a2565b60405180910390a150505050565b60016020528060005260406000206000915090505481565b60008054906101000a900473ffffffffffffffffffffffffffffffffffffffff1673ffffffffffffffffffffffffffffffffffffffff163373ffffffffffffffffffffffffffffffffffffffff16146102db57600080fd5b80789f4f2726179a224501d762422c946590d91000000000000000811061030157600080fd5b81600160008573ffffffffffffffffffffffffffffffffffffffff1673ffffffffffffffffffffffffffffffffffffffff16815260200190815260200160002060008282546103509190610525565b92505081905550505050565b60008135905061036b81610694565b92915050565b600081359050610380816106ab565b92915050565b60006020828403121561039c5761039b61061a565b5b60006103aa8482850161035c565b91505092915050565b6000806000606084860312156103cc576103cb61061a565b5b60006103da8682870161035c565b93505060206103eb8682870161035c565b92505060406103fc86828701610371565b9150509250925092565b6000806040838503121561041d5761041c61061a565b5b600061042b8582860161035c565b925050602061043c85828601610371565b9150509250929050565b61044f816105af565b82525050565b6000610462604183610514565b915061046d8261061f565b606082019050919050565b610481816105e1565b82525050565b600060208201905061049c6000830184610446565b92915050565b60006060820190506104b76000830186610446565b6104c46020830185610446565b6104d16040830184610478565b949350505050565b600060208201905081810360008301526104f281610455565b9050919050565b600060208201905061050e6000830184610478565b92915050565b600082825260208201905092915050565b6000610530826105e1565b915061053b836105e1565b9250827fffffffffffffffffffffffffffffffffffffffffffffffffffffffffffffffff038211156105705761056f6105eb565b5b828201905092915050565b6000610586826105e1565b9150610591836105e1565b9250828210156105a4576105a36105eb565b5b828203905092915050565b60006105ba826105c1565b9050919050565b600073ffffffffffffffffffffffffffffffffffffffff82169050919050565b6000819050919050565b7f4e487b7100000000000000000000000000000000000000000000000000000000600052601160045260246000fd5b600080fd5b7f546169206b686f616e206b686f6e672064752064652074687563206869656e2060008201527f6769616f20646963682c567569206c6f6e67206e6170207468656d207469656e60208201527f2100000000000000000000000000000000000000000000000000000000000000604082015250565b61069d816105af565b81146106a857600080fd5b50565b6106b4816105e1565b81146106bf57600080fd5b5056fea26469706673582212206051cc988b038e9c27d93e488f5d7c1731403018bb36e5f530e305e4b0d970e764736f6c63430008070033",
					"opcodes": "PUSH1 0x80 PUSH1 0x40 MSTORE CALLVALUE DUP1 ISZERO PUSH2 0x10 JUMPI PUSH1 0x0 DUP1 REVERT JUMPDEST POP CALLER PUSH1 0x0 DUP1 PUSH2 0x100 EXP DUP2 SLOAD DUP2 PUSH20 0xFFFFFFFFFFFFFFFFFFFFFFFFFFFFFFFFFFFFFFFF MUL NOT AND SWAP1 DUP4 PUSH20 0xFFFFFFFFFFFFFFFFFFFFFFFFFFFFFFFFFFFFFFFF AND MUL OR SWAP1 SSTORE POP PUSH2 0x6F8 DUP1 PUSH2 0x60 PUSH1 0x0 CODECOPY PUSH1 0x0 RETURN INVALID PUSH1 0x80 PUSH1 0x40 MSTORE CALLVALUE DUP1 ISZERO PUSH2 0x10 JUMPI PUSH1 0x0 DUP1 REVERT JUMPDEST POP PUSH1 0x4 CALLDATASIZE LT PUSH2 0x4C JUMPI PUSH1 0x0 CALLDATALOAD PUSH1 0xE0 SHR DUP1 PUSH4 0x7546172 EQ PUSH2 0x51 JUMPI DUP1 PUSH4 0x779AFE6 EQ PUSH2 0x6F JUMPI DUP1 PUSH4 0x27E235E3 EQ PUSH2 0x8B JUMPI DUP1 PUSH4 0x40C10F19 EQ PUSH2 0xBB JUMPI JUMPDEST PUSH1 0x0 DUP1 REVERT JUMPDEST PUSH2 0x59 PUSH2 0xD7 JUMP JUMPDEST PUSH1 0x40 MLOAD PUSH2 0x66 SWAP2 SWAP1 PUSH2 0x487 JUMP JUMPDEST PUSH1 0x40 MLOAD DUP1 SWAP2 SUB SWAP1 RETURN JUMPDEST PUSH2 0x89 PUSH1 0x4 DUP1 CALLDATASIZE SUB DUP2 ADD SWAP1 PUSH2 0x84 SWAP2 SWAP1 PUSH2 0x3B3 JUMP JUMPDEST PUSH2 0xFB JUMP JUMPDEST STOP JUMPDEST PUSH2 0xA5 PUSH1 0x4 DUP1 CALLDATASIZE SUB DUP2 ADD SWAP1 PUSH2 0xA0 SWAP2 SWAP1 PUSH2 0x386 JUMP JUMPDEST PUSH2 0x26B JUMP JUMPDEST PUSH1 0x40 MLOAD PUSH2 0xB2 SWAP2 SWAP1 PUSH2 0x4F9 JUMP JUMPDEST PUSH1 0x40 MLOAD DUP1 SWAP2 SUB SWAP1 RETURN JUMPDEST PUSH2 0xD5 PUSH1 0x4 DUP1 CALLDATASIZE SUB DUP2 ADD SWAP1 PUSH2 0xD0 SWAP2 SWAP1 PUSH2 0x406 JUMP JUMPDEST PUSH2 0x283 JUMP JUMPDEST STOP JUMPDEST PUSH1 0x0 DUP1 SLOAD SWAP1 PUSH2 0x100 EXP SWAP1 DIV PUSH20 0xFFFFFFFFFFFFFFFFFFFFFFFFFFFFFFFFFFFFFFFF AND DUP2 JUMP JUMPDEST DUP1 PUSH1 0x1 PUSH1 0x0 CALLER PUSH20 0xFFFFFFFFFFFFFFFFFFFFFFFFFFFFFFFFFFFFFFFF AND PUSH20 0xFFFFFFFFFFFFFFFFFFFFFFFFFFFFFFFFFFFFFFFF AND DUP2 MSTORE PUSH1 0x20 ADD SWAP1 DUP2 MSTORE PUSH1 0x20 ADD PUSH1 0x0 KECCAK256 SLOAD DUP2 GT ISZERO PUSH2 0x17E JUMPI PUSH1 0x40 MLOAD PUSH32 0x8C379A000000000000000000000000000000000000000000000000000000000 DUP2 MSTORE PUSH1 0x4 ADD PUSH2 0x175 SWAP1 PUSH2 0x4D9 JUMP JUMPDEST PUSH1 0x40 MLOAD DUP1 SWAP2 SUB SWAP1 REVERT JUMPDEST DUP2 PUSH1 0x1 PUSH1 0x0 DUP6 PUSH20 0xFFFFFFFFFFFFFFFFFFFFFFFFFFFFFFFFFFFFFFFF AND PUSH20 0xFFFFFFFFFFFFFFFFFFFFFFFFFFFFFFFFFFFFFFFF AND DUP2 MSTORE PUSH1 0x20 ADD SWAP1 DUP2 MSTORE PUSH1 0x20 ADD PUSH1 0x0 KECCAK256 PUSH1 0x0 DUP3 DUP3 SLOAD PUSH2 0x1CD SWAP2 SWAP1 PUSH2 0x57B JUMP JUMPDEST SWAP3 POP POP DUP2 SWAP1 SSTORE POP DUP2 PUSH1 0x1 PUSH1 0x0 DUP7 PUSH20 0xFFFFFFFFFFFFFFFFFFFFFFFFFFFFFFFFFFFFFFFF AND PUSH20 0xFFFFFFFFFFFFFFFFFFFFFFFFFFFFFFFFFFFFFFFF AND DUP2 MSTORE PUSH1 0x20 ADD SWAP1 DUP2 MSTORE PUSH1 0x20 ADD PUSH1 0x0 KECCAK256 PUSH1 0x0 DUP3 DUP3 SLOAD PUSH2 0x223 SWAP2 SWAP1 PUSH2 0x525 JUMP JUMPDEST SWAP3 POP POP DUP2 SWAP1 SSTORE POP PUSH32 0x570E6727D8AECBD70B2B62942BAFDD52DF16512778CD1454A51E2E1648719386 DUP4 DUP6 DUP5 PUSH1 0x40 MLOAD PUSH2 0x25D SWAP4 SWAP3 SWAP2 SWAP1 PUSH2 0x4A2 JUMP JUMPDEST PUSH1 0x40 MLOAD DUP1 SWAP2 SUB SWAP1 LOG1 POP POP POP POP JUMP JUMPDEST PUSH1 0x1 PUSH1 0x20 MSTORE DUP1 PUSH1 0x0 MSTORE PUSH1 0x40 PUSH1 0x0 KECCAK256 PUSH1 0x0 SWAP2 POP SWAP1 POP SLOAD DUP2 JUMP JUMPDEST PUSH1 0x0 DUP1 SLOAD SWAP1 PUSH2 0x100 EXP SWAP1 DIV PUSH20 0xFFFFFFFFFFFFFFFFFFFFFFFFFFFFFFFFFFFFFFFF AND PUSH20 0xFFFFFFFFFFFFFFFFFFFFFFFFFFFFFFFFFFFFFFFF AND CALLER PUSH20 0xFFFFFFFFFFFFFFFFFFFFFFFFFFFFFFFFFFFFFFFF AND EQ PUSH2 0x2DB JUMPI PUSH1 0x0 DUP1 REVERT JUMPDEST DUP1 PUSH25 0x9F4F2726179A224501D762422C946590D91000000000000000 DUP2 LT PUSH2 0x301 JUMPI PUSH1 0x0 DUP1 REVERT JUMPDEST DUP2 PUSH1 0x1 PUSH1 0x0 DUP6 PUSH20 0xFFFFFFFFFFFFFFFFFFFFFFFFFFFFFFFFFFFFFFFF AND PUSH20 0xFFFFFFFFFFFFFFFFFFFFFFFFFFFFFFFFFFFFFFFF AND DUP2 MSTORE PUSH1 0x20 ADD SWAP1 DUP2 MSTORE PUSH1 0x20 ADD PUSH1 0x0 KECCAK256 PUSH1 0x0 DUP3 DUP3 SLOAD PUSH2 0x350 SWAP2 SWAP1 PUSH2 0x525 JUMP JUMPDEST SWAP3 POP POP DUP2 SWAP1 SSTORE POP POP POP POP JUMP JUMPDEST PUSH1 0x0 DUP2 CALLDATALOAD SWAP1 POP PUSH2 0x36B DUP2 PUSH2 0x694 JUMP JUMPDEST SWAP3 SWAP2 POP POP JUMP JUMPDEST PUSH1 0x0 DUP2 CALLDATALOAD SWAP1 POP PUSH2 0x380 DUP2 PUSH2 0x6AB JUMP JUMPDEST SWAP3 SWAP2 POP POP JUMP JUMPDEST PUSH1 0x0 PUSH1 0x20 DUP3 DUP5 SUB SLT ISZERO PUSH2 0x39C JUMPI PUSH2 0x39B PUSH2 0x61A JUMP JUMPDEST JUMPDEST PUSH1 0x0 PUSH2 0x3AA DUP5 DUP3 DUP6 ADD PUSH2 0x35C JUMP JUMPDEST SWAP2 POP POP SWAP3 SWAP2 POP POP JUMP JUMPDEST PUSH1 0x0 DUP1 PUSH1 0x0 PUSH1 0x60 DUP5 DUP7 SUB SLT ISZERO PUSH2 0x3CC JUMPI PUSH2 0x3CB PUSH2 0x61A JUMP JUMPDEST JUMPDEST PUSH1 0x0 PUSH2 0x3DA DUP7 DUP3 DUP8 ADD PUSH2 0x35C JUMP JUMPDEST SWAP4 POP POP PUSH1 0x20 PUSH2 0x3EB DUP7 DUP3 DUP8 ADD PUSH2 0x35C JUMP JUMPDEST SWAP3 POP POP PUSH1 0x40 PUSH2 0x3FC DUP7 DUP3 DUP8 ADD PUSH2 0x371 JUMP JUMPDEST SWAP2 POP POP SWAP3 POP SWAP3 POP SWAP3 JUMP JUMPDEST PUSH1 0x0 DUP1 PUSH1 0x40 DUP4 DUP6 SUB SLT ISZERO PUSH2 0x41D JUMPI PUSH2 0x41C PUSH2 0x61A JUMP JUMPDEST JUMPDEST PUSH1 0x0 PUSH2 0x42B DUP6 DUP3 DUP7 ADD PUSH2 0x35C JUMP JUMPDEST SWAP3 POP POP PUSH1 0x20 PUSH2 0x43C DUP6 DUP3 DUP7 ADD PUSH2 0x371 JUMP JUMPDEST SWAP2 POP POP SWAP3 POP SWAP3 SWAP1 POP JUMP JUMPDEST PUSH2 0x44F DUP2 PUSH2 0x5AF JUMP JUMPDEST DUP3 MSTORE POP POP JUMP JUMPDEST PUSH1 0x0 PUSH2 0x462 PUSH1 0x41 DUP4 PUSH2 0x514 JUMP JUMPDEST SWAP2 POP PUSH2 0x46D DUP3 PUSH2 0x61F JUMP JUMPDEST PUSH1 0x60 DUP3 ADD SWAP1 POP SWAP2 SWAP1 POP JUMP JUMPDEST PUSH2 0x481 DUP2 PUSH2 0x5E1 JUMP JUMPDEST DUP3 MSTORE POP POP JUMP JUMPDEST PUSH1 0x0 PUSH1 0x20 DUP3 ADD SWAP1 POP PUSH2 0x49C PUSH1 0x0 DUP4 ADD DUP5 PUSH2 0x446 JUMP JUMPDEST SWAP3 SWAP2 POP POP JUMP JUMPDEST PUSH1 0x0 PUSH1 0x60 DUP3 ADD SWAP1 POP PUSH2 0x4B7 PUSH1 0x0 DUP4 ADD DUP7 PUSH2 0x446 JUMP JUMPDEST PUSH2 0x4C4 PUSH1 0x20 DUP4 ADD DUP6 PUSH2 0x446 JUMP JUMPDEST PUSH2 0x4D1 PUSH1 0x40 DUP4 ADD DUP5 PUSH2 0x478 JUMP JUMPDEST SWAP5 SWAP4 POP POP POP POP JUMP JUMPDEST PUSH1 0x0 PUSH1 0x20 DUP3 ADD SWAP1 POP DUP2 DUP2 SUB PUSH1 0x0 DUP4 ADD MSTORE PUSH2 0x4F2 DUP2 PUSH2 0x455 JUMP JUMPDEST SWAP1 POP SWAP2 SWAP1 POP JUMP JUMPDEST PUSH1 0x0 PUSH1 0x20 DUP3 ADD SWAP1 POP PUSH2 0x50E PUSH1 0x0 DUP4 ADD DUP5 PUSH2 0x478 JUMP JUMPDEST SWAP3 SWAP2 POP POP JUMP JUMPDEST PUSH1 0x0 DUP3 DUP3 MSTORE PUSH1 0x20 DUP3 ADD SWAP1 POP SWAP3 SWAP2 POP POP JUMP JUMPDEST PUSH1 0x0 PUSH2 0x530 DUP3 PUSH2 0x5E1 JUMP JUMPDEST SWAP2 POP PUSH2 0x53B DUP4 PUSH2 0x5E1 JUMP JUMPDEST SWAP3 POP DUP3 PUSH32 0xFFFFFFFFFFFFFFFFFFFFFFFFFFFFFFFFFFFFFFFFFFFFFFFFFFFFFFFFFFFFFFFF SUB DUP3 GT ISZERO PUSH2 0x570 JUMPI PUSH2 0x56F PUSH2 0x5EB JUMP JUMPDEST JUMPDEST DUP3 DUP3 ADD SWAP1 POP SWAP3 SWAP2 POP POP JUMP JUMPDEST PUSH1 0x0 PUSH2 0x586 DUP3 PUSH2 0x5E1 JUMP JUMPDEST SWAP2 POP PUSH2 0x591 DUP4 PUSH2 0x5E1 JUMP JUMPDEST SWAP3 POP DUP3 DUP3 LT ISZERO PUSH2 0x5A4 JUMPI PUSH2 0x5A3 PUSH2 0x5EB JUMP JUMPDEST JUMPDEST DUP3 DUP3 SUB SWAP1 POP SWAP3 SWAP2 POP POP JUMP JUMPDEST PUSH1 0x0 PUSH2 0x5BA DUP3 PUSH2 0x5C1 JUMP JUMPDEST SWAP1 POP SWAP2 SWAP1 POP JUMP JUMPDEST PUSH1 0x0 PUSH20 0xFFFFFFFFFFFFFFFFFFFFFFFFFFFFFFFFFFFFFFFF DUP3 AND SWAP1 POP SWAP2 SWAP1 POP JUMP JUMPDEST PUSH1 0x0 DUP2 SWAP1 POP SWAP2 SWAP1 POP JUMP JUMPDEST PUSH32 0x4E487B7100000000000000000000000000000000000000000000000000000000 PUSH1 0x0 MSTORE PUSH1 0x11 PUSH1 0x4 MSTORE PUSH1 0x24 PUSH1 0x0 REVERT JUMPDEST PUSH1 0x0 DUP1 REVERT JUMPDEST PUSH32 0x546169206B686F616E206B686F6E672064752064652074687563206869656E20 PUSH1 0x0 DUP3 ADD MSTORE PUSH32 0x6769616F20646963682C567569206C6F6E67206E6170207468656D207469656E PUSH1 0x20 DUP3 ADD MSTORE PUSH32 0x2100000000000000000000000000000000000000000000000000000000000000 PUSH1 0x40 DUP3 ADD MSTORE POP JUMP JUMPDEST PUSH2 0x69D DUP2 PUSH2 0x5AF JUMP JUMPDEST DUP2 EQ PUSH2 0x6A8 JUMPI PUSH1 0x0 DUP1 REVERT JUMPDEST POP JUMP JUMPDEST PUSH2 0x6B4 DUP2 PUSH2 0x5E1 JUMP JUMPDEST DUP2 EQ PUSH2 0x6BF JUMPI PUSH1 0x0 DUP1 REVERT JUMPDEST POP JUMP INVALID LOG2 PUSH5 0x6970667358 0x22 SLT KECCAK256 PUSH1 0x51 0xCC SWAP9 DUP12 SUB DUP15 SWAP13 0x27 0xD9 RETURNDATACOPY BASEFEE DUP16 0x5D PUSH29 0x1731403018BB36E5F530E305E4B0D970E764736F6C6343000807003300 "
				},
				"gasEstimates": {
					"creation": {
						"codeDepositCost": "356800",
						"executionCost": "24659",
						"totalCost": "381459"
					},
					"external": {
						"balances(address)": "2836",
						"mint(address,uint256)": "infinite",
						"minter()": "2489",
						"send(address,address,uint256)": "infinite"
					}
				},
				"methodIdentifiers": {
					"balances(address)": "27e235e3",
					"mint(address,uint256)": "40c10f19",
					"minter()": "07546172",
					"send(address,address,uint256)": "0779afe6"
				}
			},
			"storageLayout": {
				"storage": [
					{
						"astId": 3,
						"contract": "Modifier/FirstCoinModifier.sol:Firstcoin",
						"label": "minter",
						"offset": 0,
						"slot": "0",
						"type": "t_address"
					},
					{
						"astId": 7,
						"contract": "Modifier/FirstCoinModifier.sol:Firstcoin",
						"label": "balances",
						"offset": 0,
						"slot": "1",
						"type": "t_mapping(t_address,t_uint256)"
					}
				],
				"types": {
					"t_address": {
						"encoding": "inplace",
						"label": "address",
						"numberOfBytes": "20"
					},
					"t_mapping(t_address,t_uint256)": {
						"encoding": "mapping",
						"key": "t_address",
						"label": "mapping(address => uint256)",
						"numberOfBytes": "32",
						"value": "t_uint256"
					},
					"t_uint256": {
						"encoding": "inplace",
						"label": "uint256",
						"numberOfBytes": "32"
					}
				}
			},
			"userdoc": {
				"kind": "user",
				"methods": {},
				"version": 1
			}
		}
	}
}